:020000040800F2
:1000000000000120C5020008A9160008AD1600086E
:10001000B1160008B5160008B91600080000000067
:10002000000000000000000000000000BD160008F5
:10003000C116000800000000C5160008C916000817
:100040004506000845060008450600084506000864
:100050004506000845060008450600084506000854
:100060004506000845060008450600084506000844
:100070004506000845060008450600084506000834
:100080004506000845060008450600084506000824
:100090004506000845060008450600084506000814
:1000A0004506000845060008450600084506000804
:1000B00045060008450600084506000845060008F4
:1000C00045060008450600084506000845060008E4
:1000D00045060008450600084506000845060008D4
:1000E00045060008450600084506000845060008C4
:1000F00045060008450600084506000845060008B4
:100100004506000800000000000000004506000849
:100110004506000845060008450600084506000893
:100120004506000845060008450600084506000883
:100130004506000845060008000000000000000019
:1001400045060008450600084506000800000000B6
:10015000000000000000000000000000000000009F
:100160004506000845060008450600084506000843
:100170004506000845060008450600084506000833
:1001800045060008450600080000000000000000C9
:100190004506000800B583B000F0BCF9384B394A79
:1001A0001360394A136039490CE00A684B6801F161
:1001B0000C04886803E01168196004330432984223
:1001C000F9D82146324B9942EFD32E4B1A68314B66
:1001D0009A4204D12C4B1A682F4B9A4200D0FEE76A
:1001E000274B2E4A13602E4A13602E4B0AE0194605
:1001F00051F8082B5B6802E00020106004329A423C
:10020000FAD30B46284A9342F1D3244B1B6813B907
:10021000234B1B6803B1FEE700F088F9694601A88B
:1002200000F022F9214C224B1C1BA410002504E0F5
:100230001E4B53F8253098470135AC42F8DC1D4C75
:100240001D4B1C1BA410002504E01A4B53F825304D
:1002500098470135AC42F8DC0099019801F0FAF9B1
:100260000546164C164B1C1BA41004E0013C134B16
:1002700053F824309847002CF8DC284600F0D0F8DA
:10028000BABADECA000000207C000020F403000897
:100290000C040008785634123254769880000020FE
:1002A0001C0100200C0400081C0400081C040008A9
:1002B0001C0400081C0400081C0400081C0400089E
:1002C0001C04000808B5FFF765FF00BF00BEFEE78D
:1002D0001EF0040F0CBFEFF30880EFF309807146A6
:1002E000414A10472DE9F04182B004468846134B3D
:1002F0005E6B9F6B9D6A1B6B13F0020F0DD00F4B53
:10030000DB6A002B09DA4BF6AB6100F08BF920B108
:100310004FF00042094BDA620CE0094800F0ACF8FB
:10032000CDF800803B4632462946204600F002F9CF
:1003300000BEFEE702B0BDE8F08100BF00ED00E0C6
:100340000422000800BEFEE71EF0040F0CBFEFF30E
:100350000880EFF309807146244A10472DE9F041E7
:1003600082B004468846084B5E6B9F6B9D6A0748C7
:1003700000F082F8CDF800803B4632462946204600
:1003800000F0D8F800BEFEE700ED00E014220008FF
:100390001EF0040F0CBFEFF30880EFF309807146E5
:1003A000134A10472DE9F04182B004468846084BB5
:1003B0005E6B9F6B9D6A074800F05EF8CDF8008089
:1003C0003B4632462946204600F0B4F800BEFEE720
:1003D00000ED00E02022000800BEFEE700BEFEE7C0
:1003E00000BEFEE770470000E50200085D0300085C
:0403F000A503000859
:1003F4004C23000800000020800000204C2300084B
:1004040000000010000000108000002020010020E7
:080414000000001000000010C0
:10042000FEE700BF08B50D4B1B6813B90C4A0B4B18
:100430001A600A4B1A68C31C23F0030313440949CA
:100440008B4206D901F0B8F90C2303604FF0FF305E
:1004500008BD02490B60104608BD00BF84000020A3
:100460002001002000FC002001230360014B0B60F1
:10047000704700BF040000200FB400B583B004AB88
:1004800053F8042B01938021064801F0CFF900288E
:1004900003DD0146034800F039F803B05DF804EBD2
:1004A00004B070478C0000202DE9F04385B004466D
:1004B0000F46435613BB042528462146ABBE0446CF
:1004C0001FE03546102E28BF1025002306E014F942
:1004D000011B04AA1A4402F8101C0133AB42F6D3E4
:1004E00004AA1344002203F8102CE9464FF0040834
:1004F00040464946ABBE8046761B00E00E46002EC5
:10050000DFD1384605B0BDE8F08300BF08B5FFF77E
:10051000CBFF08BD08B501F0DBF8024B024A9A6038
:1005200008BD00BF00ED00E00000000808B501F0C4
:10053000FDF808BDF8B504460D4617461E46264888
:10054000FFF79AFF21682548FFF796FF6168244866
:10055000FFF792FFA1682348FFF78EFFE16822486A
:10056000FFF78AFF21692148FFF786FF616920486C
:10057000FFF782FFA1691F48FFF77EFFE1691E4870
:10058000FFF77AFF1D48FFF777FF29461C48FFF762
:1005900073FF1C4CE16A1C48FFF76EFF216B1B4880
:1005A000FFF76AFFE16B1A48FFF766FF15F0800F4F
:1005B00003D039461748FFF75FFF15F4004F03D00B
:1005C00031461548FFF758FF1448FFF755FF0699C5
:1005D0001348FFF751FFF8BDE8200008F820000895
:1005E00008210008182100082821000838210008E7
:1005F00048210008582100086821000878210008D7
:100600008421000800ED00E094210008A4210008E6
:10061000B4210008C4210008D4210008E421000806
:10062000EC21000883691A888A4207D10268033ADC
:10063000012A05D8023383610120704700207047EA
:1006400000207047FEE7000010B504460E4B1878F6
:100650004FF47A73B3FBF0F30C4A1068B0FBF3F07D
:1006600000F09CF858B90F2C0BD8002221464FF00F
:10067000FF3000F051F8064B1C60002010BD012037
:1006800010BD012010BD00BF10000020140000208C
:100690000C00002008B5074A136843F010031360EC
:1006A000032000F01BF80020FFF7CEFF00F0DEFF74
:1006B000002008BD00200240034A1368034909785E
:1006C0000B441360704700BF180100201000002089
:1006D000014B1868704700BF1801002010B5044690
:1006E000C31E042B03D9BC21094800F0BDFF094AF1
:1006F000D36823F4E0631B041B0C240204F4E064BD
:10070000234343F0BF6343F40033D36010BD00BF05
:100710003022000800ED00E070B504460E46154694
:100720000F2A03D9D4211A4800F09EFF0F2E03D9B7
:10073000D521174800F098FF164BDA68C2F3022261
:10074000C2F10701042928BF0421131D062B01D97A
:10075000033A00E00022012303FA01F1013931409C
:10076000914003FA02F2013A2A400A43002C06DAC9
:1007700004F00F041201D2B2074B1A5570BD1201DA
:10078000D2B204F1604404F5614484F8002370BDE2
:100790003022000800ED00E014ED00E00138B0F177
:1007A000807F0AD2064B5860F021064A82F8231057
:1007B0000020986007221A6070470120704700BF30
:1007C00010E000E000ED00E02DE9F04782B00446C3
:1007D0000D46B0F1904F1ED0AF4B98421BD003F5A1
:1007E0008063984217D003F58063984213D003F5D5
:1007F000806398420FD003F5806398420BD003F5D5
:100800008063984207D003F58063984203D0C321E8
:10081000A24800F029FF2B689AB212B11B0C1B04EE
:100820001BB1C4219D4800F01FFF6B68012B22D92A
:10083000112B20D0022B1ED0122B1CD0984A934291
:1008400019D002F58012934215D002F5801293421E
:1008500011D0A2F5F81293420DD002F58012934206
:1008600009D002F58012934205D0032B03D0C52195
:100870008A4800F0F9FEAB68022B03D9C6218748ED
:1008800000F0F2FE0026FFE04FF0010808FA06F83B
:1008900013EA080700F0F7806B68022B01D0122BD7
:1008A0003CD1B4F1904F1ED07B4B9C421BD003F542
:1008B00080639C4217D003F580639C4213D003F5FC
:1008C00080639C420FD003F580639C420BD003F5FC
:1008D00080639C4207D003F580639C4203D0D521FE
:1008E0006E4800F0C1FE2B690C2B07D90E2B05D0EA
:1008F0000F2B03D0D621694800F0B6FEF20808326B
:1009000054F8220006F0070399000F238B4020EAD9
:1009100003002B698B40034344F8223023684FEADD
:10092000460A4FF0030909FA0AF96FEA090903EACE
:1009300009026B6803F0030303FA0AF3134323600D
:100940006B685A1E012A03D9112B01D0122B1AD120
:10095000EB68012B05D9032B03D0EA214F4800F0A7
:1009600083FEA36809EA0302EB6803FA0AF3134360
:10097000A360636823EA08086B68C3F30013B340FD
:1009800048EA03036360E36809EA0309AB6803FA12
:100990000AF349EA0303E3606B6813F0805F72D0E7
:1009A000404B9A6942F001029A619B6903F001038E
:1009B0000193019BB1088A1C3B4B53F8220006F0BF
:1009C00003039B000F229A4020EA0200B4F1904FEB
:1009D00018D0314A944217D002F58062944215D063
:1009E00002F58062944213D002F58062944211D0E5
:1009F00002F5806294420FD002F5806294420DD1DC
:100A000006220CE000220AE0012208E0022206E0B1
:100A1000032204E0042202E0052200E0072202FA99
:100A200003F303430231204A42F821301F4B1A6876
:100A3000FB4302EA0301686810F4803F01D047EAF3
:100A400002011A4A1160526803EA0201686810F450
:100A5000003F01D047EA0201144A5160926803EA5C
:100A60000201686810F4801F01D047EA02010F4AB2
:100A70009160D2681340696811F4001F01D047EA01
:100A800002030A4AD36001362B6833FA06F27FF478
:100A9000FBAE02B0BDE8F0870004004870220008F9
:100AA000000011100010024000000140000401404D
:100AB00038B505460C4621B94FF4C871044800F01A
:100AC000D3FD2B691C4201D0012038BD002038BD68
:100AD0007022000870B5054614460E4621B94FF441
:100AE000D871074800F0C0FD012C04D940F2B111C3
:100AF000034800F0B9FD0CB1AE6170BDAE6270BDCF
:100B000070220008002800F07D8370B582B0044692
:100B100003683BB113F00F0F04D140F25711B748EF
:100B200000F0A2FD236813F0010F00F0A5806368B8
:100B300053B1B3F5803F07D0B3F5A02F04D040F2F6
:100B40005D11AE4800F090FDAD4B5B6803F00C0307
:100B5000042B0CD0AA4B5B6803F00C03082B1DD1AF
:100B6000A74B5B6803F4C033B3F5803F16D14FF455
:100B7000003393FAA3F3A24B19684FF4003393FAAE
:100B8000A3F3B3FA83F303F01F03012202FA03F382
:100B9000194271D06368002B6ED135E36368B3F5F9
:100BA000803F05D1964A136843F48033136026E0F2
:100BB00063B903F1804303F504331A6822F48032E9
:100BC0001A601A6822F480221A6018E0B3F5A02F88
:100BD0000CD103F18043A3F53C331A6842F4802220
:100BE0001A601A6842F480321A6008E0844B1A686E
:100BF00022F480321A601A6822F480221A60636834
:100C0000EBB1FFF765FD054605E0FFF761FD401B11
:100C1000642800F2FB824FF4003393FAA3F3784B7D
:100C200019684FF4003393FAA3F3B3FA83F303F094
:100C30001F03012202FA03F31942E6D01CE0FFF77A
:100C400047FD054605E0FFF743FD401B642800F221
:100C5000DF824FF4003393FAA3F3694B19684FF422
:100C6000003393FAA3F3B3FA83F303F01F030122D3
:100C700002FA03F31942E6D1236813F0020F00F0E1
:100C8000A280E368012B04D940F295115B4800F083
:100C9000EBFC23691F2B04D94FF4CB71574800F0AC
:100CA000E3FC574B5B6813F00C0F0CD0544B5B68A4
:100CB00003F00C03082B29D1514B5B6803F4C033BC
:100CC000B3F5004F22D1022393FAA3F34C4B1968DA
:100CD000022393FAA3F3B3FA83F303F01F03012271
:100CE00002FA03F3194203D0E368934240F0928280
:100CF0004348036823F0F8012369F82292FAA2F22C
:100D0000B2FA82F293400B4303605CE0E3689BB36A
:100D1000012292FAA2F3B3FA83F303F1845303F5A9
:100D200084139B001A60FFF7D3FC054605E0FFF72C
:100D3000CFFC401B022800F26F82022393FAA3F338
:100D40002F4B1968022393FAA3F3B3FA83F303F04A
:100D50001F03012202FA03F31942E8D0284803686E
:100D600023F0F8012369F82292FAA2F2B2FA82F291
:100D700093400B43036026E0012393FAA3F3B3FAF5
:100D800083F303F1845303F584139B0000221A605C
:100D9000FFF79EFC054605E0FFF79AFC401B022882
:100DA00000F23C82022393FAA3F3154B1968022345
:100DB00093FAA3F3B3FA83F303F01F03012202FAB9
:100DC00003F31942E8D1236813F0080F5FD0636979
:100DD000012B04D94FF4EB71084800F045FC63691E
:100DE0006BB3012191FAA1F2B2FA82F2054B1344DE
:100DF0009B001960FFF76CFC05460BE0AC22000875
:100E00000010024020819010FFF762FC401B022876
:100E100000F20682022393FAA3F293FAA3F293FA62
:100E2000A3F2B54A516A93FAA3F3B3FA83F303F03A
:100E30001F03012202FA03F31942E5D027E0012241
:100E400092FAA2F2B2FA82F2AC4B13449B00002257
:100E50001A60FFF73DFC054605E0FFF739FC401B33
:100E6000022800F2DF81022393FAA3F293FAA3F29D
:100E700093FAA3F2A04A516A93FAA3F3B3FA83F365
:100E800003F01F03012202FA03F31942E5D123689C
:100E900013F0040F00F0C480A368012B06D9052BC2
:100EA00004D040F20221964800F0DEFB924BDB6951
:100EB00013F0805F0BD1904BDA6942F08052DA6117
:100EC000DB6903F080530193019B012500E00025BD
:100ED0008C4B1B6813F4807F13D18A4A136843F448
:100EE00080731360FFF7F4FB064605E0FFF7F0FBA5
:100EF000801B642800F29881824B1B6813F4807F6A
:100F0000F4D0A368012B05D17B4A136A43F0010397
:100F1000136222E063B903F1804303F504331A6AD4
:100F200022F001021A621A6A22F004021A6214E024
:100F3000052B09D1704B1A6A42F004021A621A6A30
:100F400042F001021A6208E06B4B1A6A22F00102B9
:100F50001A621A6A22F004021A62A3686BB3FFF7DE
:100F6000B7FB064607E0FFF7B3FB801B41F288336F
:100F7000984200F25B81022393FAA3F293FAA3F35F
:100F8000B3FA83F35B0943F00203DBB2022B02D115
:100F9000594B196A04E0022393FAA3F3564B596A9A
:100FA000022393FAA3F3B3FA83F303F01F0301229E
:100FB00002FA03F31942D6D02CE0FFF789FB06466C
:100FC00007E0FFF785FB801B41F28833984200F26F
:100FD0002F81022393FAA3F293FAA3F3B3FA83F3D4
:100FE0005B0943F00203DBB2022B02D1424B196AC8
:100FF00004E0022393FAA3F33F4B596A022393FAC6
:10100000A3F3B3FA83F303F01F03012202FA03F3FD
:101010001942D6D125B1384AD36923F08053D36120
:10102000A369022B04D940F24621354800F01CFB8D
:10103000A369002B00F0FE802F4A526802F00C02D8
:10104000082A00F0F980022B40F0B180E369B3F583
:10105000004F07D0B3F5803F04D040F24F2128481D
:1010600000F002FB236A73B3B3F5802F2BD0B3F5E6
:10107000002F28D0B3F5402F25D0B3F5801F22D004
:10108000B3F5A01F1FD0B3F5C01F1CD0B3F5E01FF0
:1010900019D0B3F5001F16D0B3F5101F13D0B3F558
:1010A000201F10D0B3F5301F0DD0B3F5401F0AD06C
:1010B000B3F5501F07D0B3F5601F04D04FF414717F
:1010C0000F4800F0D1FA636A0F2B04D940F2522185
:1010D0000B4800F0C9FA4FF0807393FAA3F3B3FA08
:1010E00083F303F1845303F584139B0000221A60F9
:1010F000FFF7EEFA05460DE0001002402081901047
:10110000AC22000800700040FFF7E2FA401B022802
:1011100000F294804FF0007393FAA3F34B4B1968DD
:101120004FF0007393FAA3F3B3FA83F303F01F03B2
:10113000012202FA03F31942E6D14449CB6A23F0B3
:101140000F02636A1343CB624B6823F47610236A61
:10115000E269134303434B604FF0807393FAA3F3A8
:10116000B3FA83F303F1845303F584139B00012244
:101170001A60FFF7ADFA044604E0FFF7A9FA001B76
:1011800002285DD84FF0007393FAA3F32F4B196830
:101190004FF0007393FAA3F3B3FA83F303F01F0342
:1011A000012202FA03F31942E7D000204BE04FF08E
:1011B000807393FAA3F3B3FA83F303F1845303F533
:1011C00084139B0000221A60FFF782FA044604E0B1
:1011D000FFF77EFA001B022834D84FF0007393FA11
:1011E000A3F31A4B19684FF0007393FAA3F3B3FA01
:1011F00083F303F01F03012202FA03F31942E7D13C
:10120000002020E00120704701201CE003201AE0AC
:10121000032018E0012016E0032014E0032012E070
:10122000032010E003200EE003200CE003200AE07E
:10123000032008E0002006E0012004E0032002E093
:10124000032000E0032002B070BD00BF0010024088
:10125000174B5B6803F00C02082A27D103F47011C6
:101260004FF4701292FAA2F2B2FA82F221FA02F26A
:1012700010498A5C0E49C96A01F00F000F2191FAEA
:10128000A1F1B1FA81F120FA01F10B48405C13F4AD
:10129000803F05D0094BB3FBF0F000FB02F0704734
:1012A000064BB3FBF0F000FB02F0704703487047B9
:1012B00000100240F8220008E822000800127A001C
:1012C000002800F0108170B504460D46036813F045
:1012D0000F0F04D140F2BA218A4800F0C5F9022D5F
:1012E00004D940F2BB21874800F0BEF9864B1B6849
:1012F00003F007039D420BD9834A136823F00703C9
:101300002B431360136803F007039D4240F0ED8008
:10131000236813F0020F1DD0A368A3B1802B12D055
:10132000902B10D0A02B0ED0B02B0CD0C02B0AD0FD
:10133000D02B08D0E02B06D0F02B04D040F2D221E5
:10134000704800F091F971494B6823F0F002A368EE
:1013500013434B60236813F0010F5FD06368022BC7
:1013600004D940F2D921674800F07EF96268012A69
:1013700013D14FF4003393FAA3F3644B18684FF47E
:10138000003393FAA3F3B3FA83F303F01F030121AD
:1013900001FA03F3184228D1A9E0022A13D14FF031
:1013A000007393FAA3F3594B18684FF0007393FA44
:1013B000A3F3B3FA83F303F01F03012101FA03F34C
:1013C000184212D195E0022393FAA3F34F4B186809
:1013D000022393FAA3F3B3FA83F303F01F0301216B
:1013E00001FA03F3184200F0868048494B6823F065
:1013F000030313434B60FFF76BF9064606E0FFF764
:1014000067F9801B41F28833984276D83F4B5B687E
:1014100003F00C036268B3EB820FF0D13A4B1B6808
:1014200003F007039D420AD2374A136823F00703EB
:101430002B431360136803F007039D425FD12368B9
:1014400013F0040F19D0E36883B1B3F5806F0DD0AA
:10145000B3F5A06F0AD0B3F5C06F07D0B3F5E06F56
:1014600004D040F21531274800F0FEF827494B68B8
:1014700023F4E062E36813434B60236813F0080F22
:101480001AD0236983B1B3F5806F0DD0B3F5A06F87
:101490000AD0B3F5C06F07D0B3F5E06F04D04FF4B6
:1014A0004771184800F0E0F8184A536823F4605375
:1014B000216943EAC1035360FFF7CAFE134B5B681F
:1014C00003F0F002F02393FAA3F3B3FA83F322FAC2
:1014D00003F30F4AD35CD8400E4B18600020FFF78F
:1014E000B3F8002070BD01207047012070BD0120BD
:1014F00070BD012070BD012070BD032070BD0120B2
:1015000070BD00BFAC220008002002400010024065
:10151000082300081400002008B54FF400510948C2
:10152000FFF7C6FA30B9012220214FF09040FFF7B3
:10153000D1FA08BD002220214FF09040FFF7CAFAEF
:1015400008BD00BF0008004810B58AB0002405940B
:101550000694079408940994264B5A6942F4002291
:101560005A615A6902F400220192019A5A6942F4BE
:1015700080025A615A6902F480020292029A5A6900
:1015800042F400325A615A6902F400320392039A1B
:101590005A6942F480225A615B6903F48023049300
:1015A000049B224620214FF09040FFF793FA4FF41E
:1015B000005305930694079405A90F48FFF704F913
:1015C0000C23059302230693079408940723099399
:1015D00005A94FF09040FFF7F7F82023059301236A
:1015E00006930794089405A94FF09040FFF7ECF894
:1015F0000AB010BD001002400008004830B591B09C
:101600002822002106A800F0DDF8002401940294AD
:10161000039404940594022506950123099310234D
:101620000A930C954FF400430D934FF4E0130E937F
:1016300006A8FFF767FA0F230193029503944FF46E
:10164000806304930594294601A8FFF739FE11B081
:1016500030BD00BF08B5FFF71DF8FFF7CFFFFFF75C
:1016600073FFFFF759FFFCE7704700BF00B583B079
:101670000C4B9A6942F001029A619A6902F00102E8
:101680000092009ADA6942F08052DA61DB6903F075
:1016900080530193019B0720FFF720F803B05DF80A
:1016A00004FB00BF00100240704700BFFEE700BF10
:1016B000FEE700BFFEE700BFFEE700BF704700BFC8
:1016C000704700BF704700BF08B5FEF7F5FF08BDC3
:1016D000124B1A6842F001021A605968104A0A4017
:1016E0005A601A6822F0847222F480321A601A68F2
:1016F00022F480221A605A6822F4FE025A60DA6AE2
:1017000022F00F02DA62196B064A0A401A630022BD
:101710009A604FF00062044B9A60704700100240DC
:101720000CC07FF8CCFC00FF00ED00E01E4B5B68B6
:1017300003F00C03042B06D0082B08D033BB1B4A44
:101740001B4B1A6025E0194A194B1A6021E0164A12
:101750005368516801F4C031C3F383430233D26A42
:1017600002F00F020132B1F5803F07D10F49B1FB02
:10177000F2F202FB03F30E4A13600AE00B49B1FBDD
:10178000F2F202FB03F30A4A136002E0074A084B35
:101790001A60054B5B68C3F30313064AD15C044A25
:1017A0001368CB40136070470010024000127A00AB
:1017B0001400002008230008014B1868704700BF80
:1017C0007800002002440346934202D003F8011B34
:1017D000FAE7704730B5141E05469BB0184604DA88
:1017E0008B232B604FF0FF301DE04FF40273ADF8F8
:1017F0000C3014BF04F1FF332346029305934FF6D8
:10180000FF7300910491ADF80E3002461E9B6946AD
:10181000284600F073F8431CBCBF8B232B6014B127
:10182000009B00221A701BB030BD000007B500936A
:1018300013460A46014603480068FFF7CBFF03B092
:101840005DF804FB780000202DE9F0478E689E4289
:1018500082460C46914698463ED88A8912F4906F8B
:101860003AD0256809696F1A6569022305EB4505B9
:1018700095FBF3F57B1C43449D4238BF1D46530541
:101880000FD5294600F090FB064698B13A462169EB
:1018900000F016FBA38923F4906343F08003A38137
:1018A00013E02A4600F0DEFB064670B92169504677
:1018B00000F02CFB0C23CAF80030A38943F040034E
:1018C000A3814FF0FF30BDE8F087266165613E449B
:1018D000ED1B2660A5604646464528BF4646324673
:1018E0004946206800F0F7FAA3689B1BA3602368B1
:1018F0001E4426600020BDE8F08700002DE9F04F6F
:101900009DB0804603938B891C060D4616460DD567
:101910000B695BB9402100F047FB2860286118B9CA
:101920000C23C8F80030CDE040236B6100230993FD
:1019300020238DF82930DFF89CB130238DF82A3030
:1019400037463C4614F8013B1BB9B7EB060910D0EB
:1019500003E0252BF9D02746F3E74B4632462946CC
:101960004046FFF771FF013000F0A780099B4B4410
:1019700009933B78002B00F0A08000234FF0FF324A
:1019800004930793059206938DF853301A9301261A
:10199000052221784E4800F043FA671C049B38B1B9
:1019A0004B4A801A06FA00F0184304903C46EFE7D1
:1019B000D90644BF20228DF853201A0744BF2B229A
:1019C0008DF8532022782A2A03D0079A00210A2072
:1019D0000BE0039A111D12680391002A10DA52429B
:1019E00043F00200079204900BE0274601343B7855
:1019F000303B092B03D800FB02320121F5E701B18E
:101A000007923B782E2B1ED17B782A2B0AD1039B81
:101A10001A1D1B680392002BB8BF4FF0FF3302372B
:101A2000059310E000230593781C19460A24074605
:101A300001303A78303A092A03D804FB0121012306
:101A4000F5E703B1059103223978224800F0E8F95F
:101A500040B14023CBEB000003FA00F0049B184395
:101A60000490013739781C488DF8281006227E1C16
:101A700000F0D6F988B1194B33B9039B073323F033
:101A800007030833039314E003AB00932A46144B77
:101A900004A94046AFF3008007E003AB00932A4659
:101AA0000F4B04A9404600F093F8B0F1FF3F824687
:101AB00003D0099B5344099342E7AB895B0601D4E9
:101AC000099801E04FF0FF301DB0BDE8F08F00BF76
:101AD000182300081E23000822230008000000002D
:101AE000491800082DE9F04791461F460A698B689E
:101AF000DDF820809342B8BF1346C9F8003091F852
:101B0000432006460C4612B10133C9F80030236861
:101B1000990642BFD9F800300233C9F80030256871
:101B200015F0060510D104F1190A07E00123524609
:101B300039463046C04701301AD00135E368D9F83C
:101B400000209B1A9D42F1DB94F843302268003359
:101B500018BF012392060FD5E1185A1C302081F8D6
:101B60004300224494F8451082F84310023303E006
:101B70004FF0FF30BDE8F08704F1430239463046AC
:101B8000C0470130F4D02268D9F80050E36802F071
:101B90000602042A08BF5D1B2269A3680CBF25EA60
:101BA000E57500259342C4BF9B1AED184FF000095C
:101BB0001A344D4509D00123224639463046C047E4
:101BC0000130D5D009F10109F3E70020BDE8F08725
:101BD0002DE9F04317460A7E85B06E2A98460646E0
:101BE0000C460C9B01F1430E00F0AE8011D8632A25
:101BF00022D009D8002A00F0BB80582A40F0CA80C1
:101C000081F84520834955E0642A1ED0692A1CD0FA
:101C1000C0E0732A00F0B08009D86F2A2ED0702A55
:101C200040F0B8800A6842F020020A603EE0752A5F
:101C300024D0782A3AD0ADE01A6801F14205111D8E
:101C40001960136884F84230A8E021681A6811F01E
:101C5000800F02D0111D196008E011F0400F02F151
:101C60000401196002D0B2F9003000E01368002BC3
:101C70003CDA2D225B4284F8432037E021681A6861
:101C800011F0800F02D0111D196007E011F0400F14
:101C900002F10401196001D0138800E01368227E6C
:101CA0005C496F2A14BF0A2208221BE078225A4995
:101CB00084F845202268186812F0800F00F10405AE
:101CC0001D6003D1550601D5038800E00368D007E5
:101CD00044BF42F0200222601BB9226822F0200299
:101CE00022601022002084F8430001E049490A22C2
:101CF0006568A560002D08DB206820F004002060E6
:101D00002BB9002D7DD175460CE0002B79D075469E
:101D1000B3FBF2F002FB1033CB5C05F8013D034648
:101D20000028F5D1082A0BD12368DA0708D52369E2
:101D300062689A42DEBF302305F8013C05F1FF35A9
:101D4000C5EB0E0323612EE008681A68496910F09C
:101D5000800F03D0101D1860136808E010F0400FCA
:101D600002F104001860136801D0198000E01960C6
:101D700000232361754616E01A68111D1960156865
:101D800062680021284600F04BF808B1401B6060F3
:101D9000636804E004F1420584F8422001232361D2
:101DA000002384F84330CDF800803B4603AA214647
:101DB0003046FFF797FE013002D14FF0FF3026E0AA
:101DC00023692A4639463046C0470130F5D023689A
:101DD0009B0710D5002504F1190907E001234A46A5
:101DE00039463046C0470130E7D00135E368039AF1
:101DF0009B1A9D42F2DBE068039B9842B8BF1846ED
:101E000005E00B7884F8423004F142058AE705B01A
:101E1000BDE8F083292300083A23000800000000F1
:101E200001F0FF01102A2BDB10F0070F08D010F88B
:101E3000013B013A8B422DD010F0070F42B3F6D18F
:101E4000F0B441EA012141EA014122F007047FF0A8
:101E500000070023F0E80256083C85EA010586EAFF
:101E6000010685FA47F5A3FA87F586FA47F6A5FA3B
:101E700087F68EB9EED1F0BC01F0FF0102F0070247
:101E800032B110F8013B013A83EA010313B1F8D1F2
:101E90000020704701387047002D06BF35460338D3
:101EA000073815F0010F07D1013015F4807F02BF0C
:101EB000013015F4C03F0130F0BC0138704700BF5D
:101EC00010B5431E0A44914204D011F8014B03F8A7
:101ED000014FF8E710BD884210B501EB020301D8AD
:101EE000421E0BE09842FBD28118D21AD34204D092
:101EF00013F8014D01F8014DF8E710BD994204D0E7
:101F000011F8014B02F8014FF8E710BD38B505464E
:101F1000002946D051F8043C0C1F002BB8BFE41830
:101F200000F0D6F81F4A1368114613B963601460B5
:101F300032E0A3420ED92268A018834204BF186879
:101F40005B68636004BF121822600C6024E0A24248
:101F500003D813465A68002AF9D118681918A14203
:101F60000BD12168014458188242196014D11068BD
:101F700052685A60014419600EE002D90C232B60AC
:101F80000AE021686018824204BF106852686260EB
:101F900004BF091821605C602846BDE8384000F0A5
:101FA00098B838BD1001002070B5CD1C25F0030590
:101FB00008350C2D38BF0C25002D064601DBA94243
:101FC00002D90C23336046E000F082F8234B1C68F2
:101FD0001A462146A1B10B685B1B0ED40B2B03D90B
:101FE0000B60CC18CD501EE08C420DBF63684B686F
:101FF0006360136018BF0C4615E00C464968E9E7BA
:10200000174C23681BB9304600F052F8206029466F
:10201000304600F04DF8431C18D0C41C24F00304D3
:10202000A0420DD12560304600F053F804F10B00BA
:10203000231D20F00700C31A0ED05A42E25070BD93
:10204000211A304600F034F80130EBD10C23336014
:10205000304600F03EF8002070BD00BF10010020A7
:102060000C010020F8B5074615460E4621B9114669
:10207000BDE8F840FFF798BF1AB9FFF747FF2846B9
:10208000F8BD00F027F885420ED929463846FFF7FB
:102090008BFF044650B131462A46FFF711FF314607
:1020A0003846FFF733FF01E03046F8BD2046F8BD63
:1020B00038B5064C0023054608462360FEF7B2F902
:1020C000431C02D1236803B12B6038BD14010020EA
:1020D0007047704751F8040C0028BEBF091851F82A
:1020E000043CC01804387047537461636B206672F7
:1020F000616D653A0A000000205230203D20202505
:102100003038580A00000000205231203D202025A0
:102110003038580A00000000205232203D2020258F
:102120003038580A00000000205233203D2020257E
:102130003038580A0000000020523132203D20255E
:102140003038580A00000000204C52203D20202545
:102150003038580A00000000205043203D20202540
:102160003038580A0000000020505352203D2025EE
:102170003038580A000000004653522F4641523A68
:102180000A0000002043465352203D2020253038CD
:10219000580A00002048465352203D202025303860
:1021A000580A00002044465352203D202025303854
:1021B000580A00002041465352203D202025303847
:1021C000580A0000204D4D464152203D2025303810
:1021D000580A00002042464152203D202025303838
:1021E000580A00004D6973630A000000204C522F0A
:1021F0004558435F52455455524E3D20253038587E
:102200000A0000005B486172644661756C745D0A87
:10221000000000005B4275734661756C745D0A00D6
:102220005B55736167654661756C745D0A000000FB
:102230002E2E2F73797374656D2F7372632F535421
:102240004D33322D463378782D737464706572691E
:1022500070686572616C2F73746D33326633787891
:102260005F68616C5F636F727465782E6300000055
:102270002E2E2F73797374656D2F7372632F5354E1
:102280004D33322D463378782D73746470657269DE
:1022900070686572616C2F73746D33326633787851
:1022A0005F68616C5F6770696F2E63002E2E2F73FD
:1022B000797374656D2F7372632F53544D33322DC0
:1022C000463378782D7374647065726970686572CE
:1022D000616C2F73746D3332663378785F68616C2C
:1022E0005F7263632E6300000102030405060708A2
:1022F000090A0B0C0D0E0F1002030405060708094E
:102300000A0B0C0D0E0F1010000000000000000062
:102310000102030406070809232D302B2000686CF6
:102320004C006566674546470030313233343536F8
:102330003738394142434445460030313233343531
:0B23400036373839616263646566005F
:10234C0078563412880000200000000010000000B5
:10235C0001FFFFFF00127A000000000000000000E7
:10236C000000000000000000000000000000000061
:10237C000000000000000000000000000000000051
:10238C000000000000000000000000000000000041
:10239C000000000000000000000000000000000031
:1023AC000000000000000000000000000000000021
:1023BC000000000000000000180000203254769845
:040000050800019559
:00000001FF
